S01300006F75747075742F736F66742E7372656375
S214008000130000001300000013000000130000001F
S214008010130000001300000013000000130000000F
S21400802013000000130000001300000013000000FF
S21400803013000000130000001300000013000000EF
S21400804013000000130000001300000013000000DF
S214008050130000001300000013000000A5A859A09C
S21400806051A84DA045A8F9A075A8EDA0E1A819A0B3
S208008070D5A809A2DF
S21400807481400681868106828682068386830684FC
S2140080848684068586850686868606878687068887
S214008094868806898689068A868A068B868B068C57
S2140080A4868C068D868D068E868E068F868F1701A5
S2140080B410001301E1F46357BD0123200D00110DD8
S2140080C4E3DDADFF01458145BD2C2A842285F52AD2
S2140080D41D7186CE7520970000009380200F81AA1C
S2140080E41D7186CE7128970000009380200E89A209
S2140080F41D7186CE7120970000009380200D15AA6E
S2140081041D7186CEB528970000009380200C1DA212
S2140081141D7186CEB520970000009380200B21AAFF
S2140081241D7186CEB128970000009380200A31A2E4
S2140081341D7186CEB1209700000093802009EDA81B
S2140081441D7186CE35289700000093802008C5A8A8
S2140081541D7186CE35209700000093802007F9A86D
S2140081641D7186CE3128970000009380200675A8DE
S2140081741D7186CE312097000000938020057DA0D7
S2140081840EC012C216C41AC61EC82ACA2ECC32CEB6
S21400819436D03AD23ED442D646D872DA76DC7ADE86
S2140081A4FEC0732E007BF32E107B732F207BF2C24F
S2140081B4F6C4FAC6732E407BF32E507B732F607B77
S2140081C4F2C8F6CAFACC8280464ED64E664F731074
S2140081D44E7B73905E7B73106F7B164EA64E364FA7
S2140081E473100E7B73901E7B73102F7B824112429A
S2140081F4A2423243C2435245E24572468256125761
S214008204A2573258C258525EE25E725F864FF640FC
S214008214256173002030828000000000000000000A
S20C00822400000000000000004D
S20600822C01A0AA
S20600822E01A0A8
S20600823001A0A6
S20600823201A0A4
S20600823401A0A2
S20600823601A0A0
S20600823801A09E
S20600823A01A09C
S20600823C01A09A
S20600823E01A098
S20600824001A096
S20600824201A094
S214008244411106C622C463F4D500014429A036842D
S214008254B2853686A9282285B2402244410182800E
S20600826425A846
S214008266931585010605FD85ED892D8D1375F50F8C
S2060082768280FF
S21400827805C281462E960347050083C70500850577
S2140082883D8FD98E0505E398C5FE13F5F60F828057
S2080082980145828095
S21400829C11CA2A96AA86138716002380B600BA86B9
S20A0082ACE31BC7FE828002
S2140082B209CE2A96AA8603C7050085059387160067
S2100082C22380E600BE86E398C7FE82809C
S2060082CE01A008
S2060082D001A006
S2140082D241112AC632456358A00001450100B24545
S20E0082E20505E34DB5FE410182805C
S2140082ECBD8991C182801B0005009B0045001B01C7
S2140082FC85009B01C5001B0206009B0246001B0363
S21400830C86009B03C60001006B0000000100010004
S21400831C0100010001003B800600BB8046003B814B
S20C00832C8600BB81C6008280BA
S2080083340CC1828071
S21400833813060501944114C111059105E31CC5FEF9
S20600834882802C
S21400834A397106DE22DC26DA4AD837291000373594
S21400835A3030B7756C6437362057B7666C6C37772B
S21400836A7264B7677373B73434301305150293858E
S21400837AF5261306F6C69386865436D032D22ED4FF
S21400838A2AD637657365930577F713860717938694
S21400839A4403130535562AC836CA32CC2ECEC144F3
S2140083AA0810C14510088A860A84253F3715A5FB9A
S2140083BAB7F54B7137B6252E130545912328A90222
S2140083CA3715F9AA9385F5411306E6AB1305F5802A
S2140083DA232AB902232CC902232EA90202452320E6
S2140083EAA90412452322A90422452324A9043245B6
S2140083FAB70510009385050237B6AABA2326A9043C
S21400840AB7C6FECA1305D6AA1386E6AB8346040089
S21400841A03C705006397E600FD1405048505FDF409
S21400842A32852322A90037C5ADDE1305F5EEB7253A
S21400843A100088C10145F2506254D2544259216153
S20600844A828029
S21410000048656C6C6F2C20576F726C6421303030E2
S214100010636573653430343070617373776F7264F0
S2141000201409A5FB1FF44B71BEAA252E0F08F9AABA
S80400807407
