S01300006F75747075742F736F66742E7372656375
S214008000130000001300000013000000130000001F
S214008010130000001300000013000000130000000F
S21400802013000000130000001300000013000000FF
S21400803013000000130000001300000013000000EF
S21400804013000000130000001300000013000000DF
S2140080501300000013000000130000006F0040092A
S2140080606F00200A6F00000B6F00E00B6F00C00C63
S2140080706F00C00E6F00600D6F0080106F00200F45
S2100080806F00C0006F00E0106F00C01121
S21400808C81400681868106828682068386830684E4
S21400809C868406858685068686860687868706886F
S2140080AC868806898689068A868A068B868B068C3F
S2140080BC868C068D868D068E868E068F868F17018D
S2140080CC1000130161F36357BD0123200D00110D41
S2140080DCE3DDADFF01458145EF0080492A8422850A
S2140080ECEF0040211D7186CEC920970000009380BA
S2140080FC80106F0060161D7186CE45289700000014
S21400810C9380600F6F0060151D7186CE79289700DE
S21400811C00009380400E6F0060141D7186CE712097
S21400812C970000009380200D6F0060131D7186CEA3
S21400813CAD28970000009380000C6F0060121D7134
S21400814C86CEA520970000009380E00A6F00801171
S21400815C1D7186CE9928970000009380C0096F0089
S21400816C40101D7186CE9120970000009380A008C9
S21400817C6F00800F1D7186CE0D289700000093802F
S21400818C80076F00400E1D7186CE052097000000FC
S21400819C938060066F00000C1D7186CE3920970008
S2140081AC0000938040056F00000B0EC012C216C470
S2140081BC1AC61EC82ACA2ECC32CE36D03AD23ED4D6
S2140081CC42D646D872DA76DC7ADEFEC0732E007B98
S2140081DCF32E107B732F207BF2C2F6C4FAC6732ED6
S2140081EC407BF32E507B732F607BF2C8F6CAFACC1A
S2140081FC8280464ED64E664F73104E7B73905E7BD7
S21400820C73106F7B164EA64E364F73100E7B739004
S21400821C1E7B73102F7B82411242A2423243C24312
S21400822C5245E245724682561257A2573258C258E9
S21400823C525EE25E725F864FF64025617300203018
S21400824C828000000000000000000000000000001B
S20600825C00001B
S20600825E01A078
S20600826001A076
S20600826201A074
S20600826401A072
S20600826601A070
S20600826801A06E
S20600826A01A06C
S20600826C01A06A
S20600826E01A068
S20600827001A066
S20600827201A064
S20600827401A062
S214008276411106C622C463F4D500014429A03684FB
S214008286B2853686A9282285B240224441018280DC
S20600829625A814
S214008298931585010605FD85ED892D8D1375F50F5A
S2060082A88280CD
S2140082AA05C281462E960347050083C70500850545
S2140082BA3D8FD98E0505E398C5FE13F5F60F828025
S2080082CA0145828063
S2140082CE11CA2A96AA86138716002380B600BA8687
S20A0082DEE31BC7FE8280D0
S2140082E409CE2A96AA8603C7050085059387160035
S2100082F42380E600BE86E398C7FE82806A
S20600830001A0D5
S20600830201A0D3
S21400830441112AC632456358A00001450100B24512
S20E0083140505E34DB5FE4101828029
S21400831E411122C613860501AE860347050023804B
S21400832EE60085060505E39AC6FE3147B70210003D
S21400833E9382020037081000130808109308C00A2C
S21400834EB387E50003C3070003CF170083CE2700CD
S21400835E83C3370011079376C70095E63386E2018E
S21400836E3385D2019693169393564700C29603CE44
S21400837EF6FF83460600034F050083CE03008343B5
S21400838E03003343DE0003CE47FF83CF57FF03C4FD
S21400839E67FF83C677FF33456E0033C6EF0133445F
S2140083AED401B3C676002382A700A382C700238318
S2140083BE8700A383D700E36517F932444101828014
S2140083CE1306050183C6050003470500B98E230074
S2100083DED50005058505E317C5FE828066
S2140083EA411122C626C483420600034316000347E9
S2140083FA26008347360003484600834856008345CE
S21400840A66008346760083438600034E9600834EB4
S21400841AA600034FB600834FC6000344D600834423
S21400842AE6000346F60023005500A3006500230174
S21400843AE500A301F50023020501A30215012303A3
S21400844AB500A303D50023047500A304C5012305BC
S21400845AD501A305E5012306F501A3068500230732
S21200846A9500A307C5003244A244410182805B
S214008478157186CFA2CDA6CBCAC9CEC7D2C5D6C3DC
S214008488DAC15EDF62DD66DB2E8ABD89CDE9B68994
S2140084982A894C003285413563030A0A01451308C8
S2140084A84900930889003109B306A9003387A90053
S2140084B8B307A8003386A800410583450700034490
S2140084C8170083442700834237000343470083434B
S2140084D85700034E6700834E7700034F8700834F8D
S2140084E89700834AA700034BB700834BC700034C8B
S2140084F8D700834CE7000347F700238AB6FEA38A13
S21400850886FE238B96FEA38B56FE23806700A380E9
S21400851877002381C701A381D7012300E601A300C2
S214008528F60123015601A301660123807601A38084
S214008538860123819601A381E600E36745F7FE409E
S2140085486E44DE444E49BE492E4A9E4A0E4BFA5B9E
S20C0085586A5CDA5C2D6182808A
S2080085600CC1828043
S21400856413060501944114C111059105E31CC5FECB
S2060085748280FE
S20A0085768C410CC182805E
S21400857C011106CE22CC26CA4AC837291000370667
S21400858C10001306A610B70610009386A6118A8450
S21400859C0A85C1454144D93D37656C6CB7352057C3
S2140085AC37766C64130585542328A902373530308A
S2140085BC9385F5C61306F62613051502232AB9026B
S2140085CC232CC902232EA90202452320A9041245F6
S2140085DC2322A90422452324A9043245B7051000FA
S2140085EC9385A51237B6AABA2326A904B7C6FECA1F
S2140085FC1305D6AA1386E6AB83C6040003C705008C
S21400860C6397E6007D14850585047DF43285232268
S21400861CA90037C5ADDE1305F5EEB725100088C1E9
S21200862C0145F2406244D24442490561828014
S214100000637C777BF26B6FC53001672BFED7AB76C0
S214100010CA82C97DFA5947F0ADD4A2AF9CA472C06B
S214100020B7FD9326363FF7CC34A5E5F171D83115D8
S21410003004C723C31896059A071280E2EB27B275F9
S21410004009832C1A1B6E5AA0523BD6B329E32F8471
S21410005053D100ED20FCB15B6ACBBE394A4C58CF69
S214100060D0EFAAFB434D338545F9027F503C9FA83D
S21410007051A3408F929D38F5BCB6DA2110FFF3D20B
S214100080CD0C13EC5F974417C4A77E3D645D1973BF
S21410009060814FDC222A908846EEB814DE5E0BDBB9
S2141000A0E0323A0A4906245CC2D3AC629195E479F0
S2141000B0E7C8376D8DD54EA96C56F4EA657AAE084A
S2141000C0BA78252E1CA6B4C6E8DD741F4BBD8B8AE5
S2141000D0703EB5664803F60E613557B986C11D9E4B
S2141000E0E1F8981169D98E949B1E87E9CE5528DFC2
S2141000F08CA1890DBFE6426841992D0FB054BB16EE
S21410010001020408102040801B3663657365343086
S214100110343070617373776F72641409A5FB1FF423
S2141001204B71BEAA252E0F08F9AA48656C6C6F2C69
S20E10013020576F726C6421303030D7
S20610013A0000AE
S8040080D2A9
