S01300006F75747075742F736F66742E7372656375
S214008000130000001300000013000000130000001F
S214008010130000001300000013000000130000000F
S21400802013000000130000001300000013000000FF
S21400803013000000130000001300000013000000EF
S21400804013000000130000001300000013000000DF
S2140080501300000013000000130000006F0040092A
S2140080606F00200A6F00000B6F00E00B6F00C00C63
S2140080706F00C00E6F00600D6F0080106F00200F45
S2100080806F00C0006F00E0106F00C01121
S21400808C81400681868106828682068386830684E4
S21400809C868406858685068686860687868706886F
S2140080AC868806898689068A868A068B868B068C3F
S2140080BC868C068D868D068E868E068F868F17018D
S2140080CC1000130161F36357BD0123200D00110D41
S2140080DCE3DDADFF01458145EF00A0232A84228510
S2140080ECEF0040211D7186CEC920970000009380BA
S2140080FC80106F0060161D7186CE45289700000014
S21400810C9380600F6F0060151D7186CE79289700DE
S21400811C00009380400E6F0060141D7186CE712097
S21400812C970000009380200D6F0060131D7186CEA3
S21400813CAD28970000009380000C6F0060121D7134
S21400814C86CEA520970000009380E00A6F00801171
S21400815C1D7186CE9928970000009380C0096F0089
S21400816C40101D7186CE9120970000009380A008C9
S21400817C6F00800F1D7186CE0D289700000093802F
S21400818C80076F00400E1D7186CE052097000000FC
S21400819C938060066F00000C1D7186CE3920970008
S2140081AC0000938040056F00000B0EC012C216C470
S2140081BC1AC61EC82ACA2ECC32CE36D03AD23ED4D6
S2140081CC42D646D872DA76DC7ADEFEC0732E007B98
S2140081DCF32E107B732F207BF2C2F6C4FAC6732ED6
S2140081EC407BF32E507B732F607BF2C8F6CAFACC1A
S2140081FC8280464ED64E664F73104E7B73905E7BD7
S21400820C73106F7B164EA64E364F73100E7B739004
S21400821C1E7B73102F7B82411242A2423243C24312
S21400822C5245E245724682561257A2573258C258E9
S21400823C525EE25E725F864FF64025617300203018
S21400824C828000000000000000000000000000001B
S20600825C00001B
S20600825E01A078
S20600826001A076
S20600826201A074
S20600826401A072
S20600826601A070
S20600826801A06E
S20600826A01A06C
S20600826C01A06A
S20600826E01A068
S20600827001A066
S20600827201A064
S20600827401A062
S214008276411106C622C463F4D500014429A03684FB
S214008286B2853686A9282285B240224441018280DC
S20600829625A814
S214008298931585010605FD85ED892D8D1375F50F5A
S2060082A88280CD
S2140082AA05C281462E960347050083C70500850545
S2140082BA3D8FD98E0505E398C5FE13F5F60F828025
S2080082CA0145828063
S2140082CE11CA2A96AA86138716002380B600BA8687
S20A0082DEE31BC7FE8280D0
S2140082E409CE2A96AA8603C7050085059387160035
S2100082F42380E600BE86E398C7FE82806A
S20600830001A0D5
S20600830201A0D3
S21400830441112AC632456358A00001450100B24512
S20E0083140505E34DB5FE4101828029
S21400831E79713718F9AAB7B8252E37F34B71B716F9
S21400832EA5FBB7727264B763737337353430B765AF
S21400833E736502C002C202C402C61307F880138613
S21400834EE8AB9307F3419386469136D03ED232D4AD
S21400835E3AD61010938672F7138703171305450344
S21400836E938535562EC82ACA3ACC36CE08081B0038
S21400837E06009B0046001B0186009B01C6008A85F0
S21400838E1B0205009B0245001B0385009B03C500D0
S21400839E372510006B1000003B800500BB804500A3
S2140083AE3B818500BB81C500B7656C6C9385855493
S2140083BE0CD9B73520579385F5C64CD9B7756C646E
S2140083CE9385F5260CDDB7353030938515024CDDDA
S2140083DE82452CC192456CC1A2452CC5B2456CC5D2
S2140083EEB7C5FECA9385E5AB4CC1B7C5ADDE938562
S20E0083FEF5EE0CC1014545618280D2
S2141000001409A5FB1FF44B71BEAA252E0F08F9AADA
S214100010636573653430343070617373776F7264F0
S80400808CEF
