S01300006F75747075742F736F66742E7372656375
S214008000130000001300000013000000130000001F
S214008010130000001300000013000000130000000F
S21400802013000000130000001300000013000000FF
S21400803013000000130000001300000013000000EF
S21400804013000000130000001300000013000000DF
S2140080501300000013000000130000006F0040092A
S2140080606F00200A6F00000B6F00E00B6F00C00C63
S2140080706F00C00E6F00600D6F0080106F00200F45
S2100080806F00C0006F00E0106F00C01121
S21400808C81400681868106828682068386830684E4
S21400809C868406858685068686860687868706886F
S2140080AC868806898689068A868A068B868B068C3F
S2140080BC868C068D868D068E868E068F868F17018D
S2140080CC1000130161F36357BD0123200D00110D41
S2140080DCE3DDADFF01458145EF0030392A8422856A
S2140080ECEF0040211D7186CEC920970000009380BA
S2140080FC80106F0060161D7186CE45289700000014
S21400810C9380600F6F0060151D7186CE79289700DE
S21400811C00009380400E6F0060141D7186CE712097
S21400812C970000009380200D6F0060131D7186CEA3
S21400813CAD28970000009380000C6F0060121D7134
S21400814C86CEA520970000009380E00A6F00801171
S21400815C1D7186CE9928970000009380C0096F0089
S21400816C40101D7186CE9120970000009380A008C9
S21400817C6F00800F1D7186CE0D289700000093802F
S21400818C80076F00400E1D7186CE052097000000FC
S21400819C938060066F00000C1D7186CE3920970008
S2140081AC0000938040056F00000B0EC012C216C470
S2140081BC1AC61EC82ACA2ECC32CE36D03AD23ED4D6
S2140081CC42D646D872DA76DC7ADEFEC0732E007B98
S2140081DCF32E107B732F207BF2C2F6C4FAC6732ED6
S2140081EC407BF32E507B732F607BF2C8F6CAFACC1A
S2140081FC8280464ED64E664F73104E7B73905E7BD7
S21400820C73106F7B164EA64E364F73100E7B739004
S21400821C1E7B73102F7B82411242A2423243C24312
S21400822C5245E245724682561257A2573258C258E9
S21400823C525EE25E725F864FF64025617300203018
S21400824C828000000000000000000000000000001B
S20600825C00001B
S20600825E01A078
S20600826001A076
S20600826201A074
S20600826401A072
S20600826601A070
S20600826801A06E
S20600826A01A06C
S20600826C01A06A
S20600826E01A068
S20600827001A066
S20600827201A064
S20600827401A062
S214008276411106C622C463F4D500014429A03684FB
S214008286B2853686A9282285B240224441018280DC
S20600829625A814
S214008298931585010605FD85ED892D8D1375F50F5A
S2060082A88280CD
S2140082AA05C281462E960347050083C70500850545
S2140082BA3D8FD98E0505E398C5FE13F5F60F828025
S2080082CA0145828063
S2140082CE11CA2A96AA86138716002380B600BA8687
S20A0082DEE31BC7FE8280D0
S2140082E409CE2A96AA8603C7050085059387160035
S2100082F42380E600BE86E398C7FE82806A
S20600830001A0D5
S20600830201A0D3
S21400830441112AC632456358A00001450100B24512
S20E0083140505E34DB5FE4101828029
S21400831E411122C613860501AE860347050023804B
S21400832EE60085060505E39AC6FE3147B70210003D
S21400833E9382020037081000130808109308C00A2C
S21400834EB387E50003C3070003CF170083CE2700CD
S21400835E83C3370011079376C70095E63386E2018E
S21400836E3385D2019693169393564700C29603CE44
S21400837EF6FF83460600034F050083CE03008343B5
S21400838E03003343DE0003CE47FF83CF57FF03C4FD
S21400839E67FF83C677FF33456E0033C6EF0133445F
S2140083AED401B3C676002382A700A382C700238318
S2140083BE8700A383D700E36517F932444101828014
S2140083CE93050501370610001306060083460500C2
S2140083DEB29683C606002300D5000505E318B5FE43
S2060083EE828086
S2140083F0034855008348650003437500834E950087
S2140084008347A5008342B500034ED5008345E500AB
S2140084108346F500834315000346250003473500D1
S214008420A30005012301F500A301D500A302D50191
S2140084302303B500A303E500A304C5012305C50077
S214008440A3056500A306750023071501A3075500BD
S206008450828023
S2140084520146A1461397F501931785017D87698F1B
S2140084620605FD16FD87ED8B398E3D8D8581FDF265
S20A0084721375F60F828070
S214008478797106D622D426D24AD04ECE014F93081A
S214008488C10011488146931F2F00B305F50103C9A3
S214008498050009472146CA859397F5019314870175
S2140084A8FD87F98F0607E2057D16FD84ED88BD8EEB
S2140084B8258FE58175F20147938E1F00B305D50118
S2140084C883C305008D4521469E879394F701139430
S2140084D88501FD84ED8C8605E2077D167D846D8812
S2140084E8258FA18DE58375F2B98E13832F009382AD
S2140084F83F00B30565003307550003CE05008349E2
S2140085080700C69F0947B3C5C601B3C53501238012
S214008518BF00A1459E879396F70113148701FD8631
S214008528F98E0607E207FD157D846D88358E218F46
S214008538E583F5F18D47214772849316F4019394E9
S2140085488701FD86FD8E860762047D17FD84ED880B
S214008558B58DA58F658075F3B3C62901358EC69E81
S214008568B18D09462380BE00A145F2879396F70190
S21400857893148601FD86F18E0606E207FD15FD8436
S214008588ED88358F258EE583F5F101468D47A145A3
S214008598CE869394F60113948701FD84FD8C860796
S2140085A8E206FD157D846D88258EA18FE582F5F19E
S2140085B8B3C62301B98E4693358E0D472300C300F4
S2140085C821469316F90193178701FD86F98E06074B
S2140085D862097D16FD87ED8BB58D3D8F1359990180
S2140085E86DF2894721479396F90193948701FD8692
S2140085F8FD8E8607E2097D17FD84ED88358EA58FEA
S21400860893D999016DF3B3467E00C692B58DB18DA8
S214008618050F2380B200E3170FE76C0041467D394B
S212008628B250225492540259F24945618280A3
S2140086361306050183C6050003470500B98E230009
S210008646D50005058505E317C5FE8280FB
S214008652411132888348C5008342D5000347E500AE
S2140086628347F50003468500834695000343A5002D
S2140086728343B500A2024207E207A206B3E812014C
S21400868233EEE700B3E2C600834645008347550053
S21400869203466500034775004203E203A20742064B
S2140086A2620733E36300B3E3D700834705008346DC
S2140086B21500598E0347250003453500A206DD8EB8
S2140086C242076205598D33671E01B367530033664E
S2140086D27600C98E0A8536C032C23EC43AC6100833
S2140086E2AE8603C70600834705003D8F2300E500DC
S2140086F205058506E317C5FE824888493305152712
S214008702924288C933055566A24688C93305D5A65E
S214008712B24788C93305F5E6D04988C933065626D6
S214008722D0C93306D666D0C93306F6A6D0C93306F4
S21400873216E7984DD0C93307D72698CD3307F76684
S21400874298CD330717A798CD330757E6C84D98CD6F
S2140087523305F526C8CD33051567C8CD330555A6AE
S214008762C8CD3305D5E69051944983A2450183A826
S2140087728501C8CD3306D62690D13306566690D1EB
S214008782330616A790D13306A6E6D85190D1330702
S2140087925726D8D133071767D8D13307A7A6D8D11B
S2140087A23307D7E69C55D8D1B38717279CD5B3870E
S2140087B2A7669CD5B387D7A69CD5B38757E6D05570
S2140087C29CD53306A626D0D53306D666D0D5330634
S2140087D256A6D0D5330616E78859945183A2450289
S2140087E283A88502D0D53305D52688D933055566A4
S2140087F288D9330515A788D93305C5E6D85988D947
S21400880233075726D8D933071767D8D93307C7A6E9
S214008812D8D93307D7E69C5DD8D9B38717279CDD0E
S214008822B387C7669CDDB387D7A69CDDB38757E6BA
S214008832C85D9CDD3305C526C8DD3305D566C8DDB3
S214008842330555A6C8DD330515E7B041945983A212
S214008852450383A88503C8DD3306D626B0C1330692
S2140088625666B0C1330616A7B0C13306A6E6F8416F
S214008872B0C133075726F8C133071767F8C1330765
S214008882A7A6F8C13307D7E6BC45F8C1B3871727B2
S214008892BCC5B387A766BCC5B387D7A6BCC5B38716
S2140088A257E6F045BCC53306A626F0C53306D6669F
S2140088B2F0C5330656A6F0C5330616E7A849B441F6
S2140088C283A2450483A88504F0C53305D526A8C926
S2140088D233055566A8C9330515A7A8C93305C5E6E5
S2140088E2F849A8C933075726F8C933071767F8C9DE
S2140088F23307C7A6F8C93307D7E6BC4DF8C9B3870E
S2140089021727BCCDB387C766BCCDB387D7A6BCCD69
S214008912B38757E6E84DBCCD3305C526E8CD33050B
S214008922D566E8CD330555A6E8CD330515E7B05133
S214008932B44983A2450583A88505E8CD3306D62625
S214008942B0D133065666B0D1330616A7B0D1330679
S214008952A6E6F851B0D133075726F8D13307176782
S214008962F8D13307A7A6F8D13307D7E6BC55F8D116
S214008972B3871727BCD5B387A766BCD5B387D7A658
S214008982BCD5B38757E6F055BCD53306A626F0D538
S2140089923306D666F0D5330656A6F0D5330616E766
S2140089A2A859B45183A2450683A88506F0D5330597
S2140089B2D526A8D933055566A8D9330515A7A8D94B
S2140089C23305C5E6F859A8D933075726F8D9330729
S2140089D21767F8D93307C7A6F8D93307D7E6BC5DB9
S2140089E2F8D9B3871727BCDDB387C766BCDDB38764
S2140089F2D7A6BCDDB38757E6E85DBCDD3305C526E2
S214008A02E8DD3305D566E8DD330555A6E8DD330532
S214008A1215E703A60508B45983A2450783A8850768
S214008A22E8DD3306D62623A0C5083306566623A0FD
S214008A32C508330616A723A0C5083306A6E603A76D
S214008A42450823A0C5083307572623A2E50833079F
S214008A52176723A2E5083307A7A623A2E50833076C
S214008A62D7E683A7850823A2E508B387172723A49A
S214008A72F508B387A76623A4F508B387D7A623A469
S214008A82F508B38757E603A6C50823A4F5083306F8
S214008A92A62623A6C5083306D66623A6C508330629
S214008AA256A623A6C508330616E703A5050983A618
S214008AB2050883A2450883A8850823A6C5083305AA
S214008AC2D52623A8A5083305556623A8A508330589
S214008AD215A723A8A5083305C5E603A7450923A8B5
S214008AE2A5083307572623AAE5083307176723AADC
S214008AF2E5083307C7A623AAE5083307D7E683A700
S214008B02850923AAE508B387172723ACF508B38798
S214008B12C76623ACF508B387D7A623ACF508B38798
S214008B2257E603A5C50923ACF5083305C52623AECB
S214008B32A5083305D56623AEA508330555A623AE8C
S214008B42A508330515E703A7050A83A6050983A228
S214008B52450983A8850923AEA5083307D72223A093
S214008B62E50A3307576223A0E50A330717A323A0B3
S214008B72E50A3307A7E203A6450A23A0E50A330659
S214008B82562223A2C50A3306166323A2C50A330653
S214008B92A6A223A2C50A3306D6E203A7850A23A203
S214008BA2C50A3307172323A4E50A3307A76223A4BB
S214008BB2E50A3307D7A223A4E50A330757E283A7B9
S214008BC2C50A23A4E50A1387050AB387A72223A6A4
S214008BD2F50AB387D76223A6F50AB38757A223A658
S214008BE2F50AB38717E3414623A6F50A4285BA85F6
S20A008BF241016FF00FEFD9
S214008BF80971232E1116232C8116232A9116232851
S214008C08211723263117AE84BD8985E93689AA89B6
S214008C186C193285EFF02FF08DC0014468006C198E
S214008C281306000BEFF08FEB3385890033068900B7
S214008C386C00213C4104E36394FE8320C11703249F
S214008C48811783244117032901178329C11619613F
S206008C58828013
S208008C5A0CC1828042
S214008C5E13060501944114C111059105E31CC5FECA
S206008C6E8280FD
S20A008C708C410CC182805D
S214008C76011106CE22CC26CA4AC837291000370567
S214008C8610001305A512370610001306A610C144D9
S214008C96C1458A860A84B13F3715A5FBB7F54B71E1
S214008CA637B6252E130545912328A9023715F9AAA6
S214008CB69385F5411306E6AB1305F580232AB9021C
S214008CC6232CC902232EA90202452320A9041245F5
S214008CD62322A90422452324A9043245B7051000F9
S214008CE69385A51137B6AABA2326A904B7C6FECA1F
S214008CF61305D6AA1386E6AB8346040003C705000B
S214008D066397E6008505FD140504FDF432852322E7
S214008D16A90037C5ADDE1305F5EEB725100088C1E8
S212008D260145F2406244D24442490561828013
S214100000637C777BF26B6FC53001672BFED7AB76C0
S214100010CA82C97DFA5947F0ADD4A2AF9CA472C06B
S214100020B7FD9326363FF7CC34A5E5F171D83115D8
S21410003004C723C31896059A071280E2EB27B275F9
S21410004009832C1A1B6E5AA0523BD6B329E32F8471
S21410005053D100ED20FCB15B6ACBBE394A4C58CF69
S214100060D0EFAAFB434D338545F9027F503C9FA83D
S21410007051A3408F929D38F5BCB6DA2110FFF3D20B
S214100080CD0C13EC5F974417C4A77E3D645D1973BF
S21410009060814FDC222A908846EEB814DE5E0BDBB9
S2141000A0E0323A0A4906245CC2D3AC629195E479F0
S2141000B0E7C8376D8DD54EA96C56F4EA657AAE084A
S2141000C0BA78252E1CA6B4C6E8DD741F4BBD8B8AE5
S2141000D0703EB5664803F60E613557B986C11D9E4B
S2141000E0E1F8981169D98E949B1E87E9CE5528DFC2
S2141000F08CA1890DBFE6426841992D0FB054BB16EE
S21410010001020408102040801B3663657365343086
S214100110343070617373776F72641409A5FB1FF423
S2141001204B71BEAA252E0F08F9AA48656C6C6F2C69
S20E10013020576F726C6421303030D7
S20610013A0000AE
S8040080D2A9
