S01300006F75747075742F736F66742E7372656375
S214008000130000001300000013000000130000001F
S214008010130000001300000013000000130000000F
S21400802013000000130000001300000013000000FF
S21400803013000000130000001300000013000000EF
S21400804013000000130000001300000013000000DF
S2140080501300000013000000130000006F0040092A
S2140080606F00200A6F00000B6F00E00B6F00C00C63
S2140080706F00C00E6F00600D6F0080106F00200F45
S2100080806F00C0006F00E0106F00C01121
S21400808C81400681868106828682068386830684E4
S21400809C868406858685068686860687868706886F
S2140080AC868806898689068A868A068B868B068C3F
S2140080BC868C068D868D068E868E068F868F17018D
S2140080CC1000130161F36357BD0123200D00110D41
S2140080DCE3DDADFF01458145EF0030242A8422857F
S2140080ECEF0040211D7186CEC920970000009380BA
S2140080FC80106F0060161D7186CE45289700000014
S21400810C9380600F6F0060151D7186CE79289700DE
S21400811C00009380400E6F0060141D7186CE712097
S21400812C970000009380200D6F0060131D7186CEA3
S21400813CAD28970000009380000C6F0060121D7134
S21400814C86CEA520970000009380E00A6F00801171
S21400815C1D7186CE9928970000009380C0096F0089
S21400816C40101D7186CE9120970000009380A008C9
S21400817C6F00800F1D7186CE0D289700000093802F
S21400818C80076F00400E1D7186CE052097000000FC
S21400819C938060066F00000C1D7186CE3920970008
S2140081AC0000938040056F00000B0EC012C216C470
S2140081BC1AC61EC82ACA2ECC32CE36D03AD23ED4D6
S2140081CC42D646D872DA76DC7ADEFEC0732E007B98
S2140081DCF32E107B732F207BF2C2F6C4FAC6732ED6
S2140081EC407BF32E507B732F607BF2C8F6CAFACC1A
S2140081FC8280464ED64E664F73104E7B73905E7BD7
S21400820C73106F7B164EA64E364F73100E7B739004
S21400821C1E7B73102F7B82411242A2423243C24312
S21400822C5245E245724682561257A2573258C258E9
S21400823C525EE25E725F864FF64025617300203018
S21400824C828000000000000000000000000000001B
S20600825C00001B
S20600825E01A078
S20600826001A076
S20600826201A074
S20600826401A072
S20600826601A070
S20600826801A06E
S20600826A01A06C
S20600826C01A06A
S20600826E01A068
S20600827001A066
S20600827201A064
S20600827401A062
S214008276411106C622C463F4D500014429A03684FB
S214008286B2853686A9282285B240224441018280DC
S20600829625A814
S214008298931585010605FD85ED892D8D1375F50F5A
S2060082A88280CD
S2140082AA05C281462E960347050083C70500850545
S2140082BA3D8FD98E0505E398C5FE13F5F60F828025
S2080082CA0145828063
S2140082CE11CA2A96AA86138716002380B600BA8687
S20A0082DEE31BC7FE8280D0
S2140082E409CE2A96AA8603C7050085059387160035
S2100082F42380E600BE86E398C7FE82806A
S20600830001A0D5
S20600830201A0D3
S21400830441112AC632456358A00001450100B24512
S20E0083140505E34DB5FE4101828029
S21400831E0146A1461397F501931785017D87698F50
S21400832E0605FD16FD87ED8B398E3D8D8581FDF29A
S20A00833E1375F60F8280A5
S214008344011122CE26CC4ACA4EC852C656C45AC2B8
S2140083545EC013860501AE86034705002380E6004B
S21400836485060505E39AC6FE3147B70210009382D8
S214008374020037081000130808109308C00AB387D1
S214008384E50083C3070083C6170083CE270003CE09
S214008394370011071375C70005E93383D200B38687
S2140083A4D2013386C20133847200135547004295C6
S2140083B40345F5FF8344030083C60600834E060088
S2140083C4034E0400B343950003C547FF83C457FF19
S2140083D403C467FF03C677FF33457500A58EB34411
S2140083E4D4013346C6012382A700A382D700238381
S2140083F49700A383C700E36417F9414537031000C9
S2140084041303A3109143130800098142AA88338EEC
S214008414A5001399220033052E01834E0500034F51
S2140084241500834F250083493500814A014B139A72
S2140084342A001A9A03470A00A14776841316F40101
S214008444931687017D86798E0607FD17FD86ED8ACD
S214008454334B6601358F0580F5F3814B03471A00CD
S214008464A147FA841396F401931687017D86798EC4
S2140084740607FD17FD86ED8AB34B7601358F85809A
S214008484F5F3814403462A00A1477E879316F70135
S21400849413158601FD86F18E0606FD177D856D890A
S2140084A4B58C298E0583FDF383463A0021464E8714
S2140084B41315F701139486017D85758D86067D1642
S2140084C47D846D88A98FA18E05837DF233C56B01EB
S2140084D433E62A01258D72963D8D850A2300A60073
S2140084E4E3967AF48502E39672F213850801E3EEC6
S2140084F408F17244E2445249C249324AA24A124B33
S20A008504824B0561828037
S21400850A1306050183C6050003470500B98E230036
S21000851AD50005058505E317C5FE828028
S21400852641110348C6008348D6008342E6008346C8
S214008536F60003478600834796000343A600834358
S214008546B600A208C202E206A20733E80801B3E8AC
S2140085565600B3E2E700034E46008346560003473E
S2140085666600834776004203E203A2064207E20756
S21400857633E36300B3E3C601034E060083461600E4
S214008586B3EEE7008347260003463600A206B3E6A8
S214008596C601C2076206D18F33E80801B3685300E6
S2140085A633E77E001386050AD58F8A863EC03AC212
S2140085B646C442C6130801018347060003C70600E1
S2140085C63D8F2380E60085060506E39706FF0248EC
S2140085D603A605093306062FB24823A8C5083306A0
S2140085E6166FA24223A8C508330656AE924623A89F
S2140085F6C5083306D6EE03A7450923A8C5083307DC
S214008606D72E23AAE5083307076F23AAE5083307FC
S21400861617AF23AAE508330757EE83A7850923AACB
S214008626E508B387572E23ACF508B387D76E23AC79
S214008636F508B38707AF23ACF508B38717EF03A68D
S214008646C50923ACF5083306162F23AEC508330630
S214008656566E23AEC5083306D6AE23AEC508330619
S21400866606EF83A6050803A8050983A8450983A27D
S214008676850923AEC508B386062F23A0D508B3867C
S214008686C66E23A0D508B38656AE23A0D508B386F5
S21400869616EF83A7450823A0D508B387172F23A26E
S2140086A6F508B387076F23A2F508B387C7AE23A2DC
S2140086B6F508B38757EE03A7850823A2F508330700
S2140086C6572E23A4E5083307176F23A4E5083307B8
S2140086D607AF23A4E5083307C7EE83A6C50823A479
S2140086E6E508B386C62E23A6D508B386566E23A6F9
S2140086F6D508B38616AF23A6D508B38606EFB059B7
S21400870603A8050883A8450883A2850823A6D508D6
S2140087163306062FB0D93306D66EB0D9330656AE14
S214008726B0D9330616EFFC59B0D9B387172FFCD944
S214008736B387076FFCD9B387D7AEFCD9B38757EE96
S214008746B85DFCD93307572EB8DD3307176FB8DD8B
S214008756330707AFB8DD3307D7EEF05DB8DD33066F
S214008766D62EF0DD3306566EF0DD330616AFF0DD98
S214008776330606EFB45103A8050783A8450783A268
S2140087868507F0DDB386062FB4D1B386C66EB4D1A0
S214008796B38656AEB4D1B38616EFFC51B4D1B387C2
S2140087A6172FFCD1B387076FFCD1B387C7AEFCD1B2
S2140087B6B38757EEB855FCD13307572EB8D53307CF
S2140087C6176FB8D5330707AFB8D53307C7EEF455D6
S2140087D6B8D5B386C62EF4D5B386566EF4D5B3860C
S2140087E616AFF4D5B38606EFB04903A8050683A8E8
S2140087F6450683A28506F4D53306062FB0C933068A
S214008806D66EB0C9330656AEB0C9330616EFFC4967
S214008816B0C9B387172FFCC9B387076FFCC9B387E0
S214008826D7AEFCC9B38757EEB84DFCC93307572EEB
S214008836B8CD3307176FB8CD330707AFB8CD3307B4
S214008846D7EEF04DB8CD3306D62EF0CD3306566E9F
S214008856F0CD330616AFF0CD330606EFB44103A8C7
S214008866050583A8450583A28505F0CDB386062FA4
S214008876B4C1B386C66EB4C1B38656AEB4C1B386AB
S21400888616EFFC41B4C1B387172FFCC1B387076F39
S214008896FCC1B387C7AEFCC1B38757EEB845FCC16B
S2140088A63307572EB8C53307176FB8C5330707AF54
S2140088B6B8C53307C7EEF445B8C5B386C62EF4C5A5
S2140088C6B386566EF4C5B38616AFF4C5B38606EF02
S2140088D6905903A8050483A8450483A28504F4C515
S2140088E63306062F90D93306D66E90D9330656AE83
S2140088F690D9330616EFDC5990D9B387172FDCD9F3
S214008906B387076FDCD9B387D7AEDCD9B38757EE04
S214008916985DDCD93307572E98DD3307176F98DD39
S214008926330707AF98DD3307D7EED05D98DD3306FD
S214008936D62ED0DD3306566ED0DD330616AFD0DD26
S214008946330606EF945103A8050383A8450383A2BE
S2140089568503D0DDB386062F94D1B386C66E94D132
S214008966B38656AE94D1B38616EFDC5194D1B38750
S214008976172FDCD1B387076FDCD1B387C7AEDCD140
S214008986B38757EE9855DCD13307572E98D533075D
S214008996176F98D5330707AF98D53307C7EED45564
S2140089A698D5B386C62ED4D5B386566ED4D5B3869A
S2140089B616AFD4D5B38606EF904903A8050283A85A
S2140089C6450283A28502D4D53306062F90C9330600
S2140089D6D66E90C9330656AE90C9330616EFDC49F6
S2140089E690C9B387172FDCC9B387076FDCC9B3876F
S2140089F6D7AEDCC9B38757EE984DDCC93307572E7A
S214008A0698CD3307176F98CD330707AF98CD330742
S214008A16D7EED04D98CD3306D62ED0CD3306566E2D
S214008A26D0CD330616AFD0CD330606EF944103A855
S214008A36050183A845019C4DD0CDB386062B94C16F
S214008A46B386C66A94C1B386F6AA94C1B38616EBF5
S214008A56D84194C13307172BD8C13307076BD8C143
S214008A663307C7AAD8C13307F7EA9445D8C1B386F1
S214008A76F62A94C5B386166B94C5B38606AB94C51C
S214008A86B386C6EAD84594C53307C72AD8C533077A
S214008A96F76AD8C5330717ABD8C5330707EB414681
S20A008AA6D8C541012DB801
S214008AAC0971232E1116232C8116232A911623289E
S214008ABC211723263117AE84BD8995E53689AA89F8
S214008ACC6C193285953885C0014468006C191306FC
S214008ADC000B193033858900330689006C00353C51
S214008AEC4104E36494FE8320C11703248117832476
S212008AFC4117032901178329C11619618280CC
S208008B0A0CC1828093
S214008B0E13060501944114C111059105E31CC5FE1B
S206008B1E82804E
S20A008B208C410CC18280AE
S214008B26011106CE22CC26CA4AC8372910003706B7
S214008B3610001306A611B70610009386A6128A849E
S214008B460A85C1454144853737656C6CB73520576D
S214008B5637766C64130585542328A90237353030DA
S214008B669385F5C61306F62613051502232AB902BB
S214008B76232CC902232EA90202452320A904124546
S214008B862322A90422452324A9043245B70510004A
S214008B969385A51337B6AABA2326A904B7C6FECA6E
S214008BA61305D6AA1386E6AB83C6040003C70500DC
S214008BB66397E60085057D1485047DF432852322B9
S214008BC6A90037C5ADDE1305F5EEB725100088C13A
S212008BD60145F2406244D24442490561828065
S214100000637C777BF26B6FC53001672BFED7AB76C0
S214100010CA82C97DFA5947F0ADD4A2AF9CA472C06B
S214100020B7FD9326363FF7CC34A5E5F171D83115D8
S21410003004C723C31896059A071280E2EB27B275F9
S21410004009832C1A1B6E5AA0523BD6B329E32F8471
S21410005053D100ED20FCB15B6ACBBE394A4C58CF69
S214100060D0EFAAFB434D338545F9027F503C9FA83D
S21410007051A3408F929D38F5BCB6DA2110FFF3D20B
S214100080CD0C13EC5F974417C4A77E3D645D1973BF
S21410009060814FDC222A908846EEB814DE5E0BDBB9
S2141000A0E0323A0A4906245CC2D3AC629195E479F0
S2141000B0E7C8376D8DD54EA96C56F4EA657AAE084A
S2141000C0BA78252E1CA6B4C6E8DD741F4BBD8B8AE5
S2141000D0703EB5664803F60E613557B986C11D9E4B
S2141000E0E1F8981169D98E949B1E87E9CE5528DFC2
S2141000F08CA1890DBFE6426841992D0FB054BB16EE
S21410010001020408102040801B360E0B0D09090E44
S2141001100B0D0D090E0B0B0D090E63657365343050
S214100120343070617373776F72641409A5FB1FF413
S2141001304B71BEAA252E0F08F9AA48656C6C6F2C59
S20E10014020576F726C6421303030C7
S20610014A00009E
S8040080D2A9
