S01300006F75747075742F736F66742E7372656375
S214008000130000001300000013000000130000001F
S214008010130000001300000013000000130000000F
S21400802013000000130000001300000013000000FF
S21400803013000000130000001300000013000000EF
S21400804013000000130000001300000013000000DF
S2140080501300000013000000130000006F0040092A
S2140080606F00200A6F00000B6F00E00B6F00C00C63
S2140080706F00C00E6F00600D6F0080106F00200F45
S2100080806F00C0006F00E0106F00C01121
S21400808C81400681868106828682068386830684E4
S21400809C868406858685068686860687868706886F
S2140080AC868806898689068A868A068B868B068C3F
S2140080BC868C068D868D068E868E068F868F17018D
S2140080CC1000130161F36357BD0123200D00110D41
S2140080DCE3DDADFF01458145EF0080692A842285EA
S2140080ECEF0040211D7186CEC920970000009380BA
S2140080FC80106F0060161D7186CE45289700000014
S21400810C9380600F6F0060151D7186CE79289700DE
S21400811C00009380400E6F0060141D7186CE712097
S21400812C970000009380200D6F0060131D7186CEA3
S21400813CAD28970000009380000C6F0060121D7134
S21400814C86CEA520970000009380E00A6F00801171
S21400815C1D7186CE9928970000009380C0096F0089
S21400816C40101D7186CE9120970000009380A008C9
S21400817C6F00800F1D7186CE0D289700000093802F
S21400818C80076F00400E1D7186CE052097000000FC
S21400819C938060066F00000C1D7186CE3920970008
S2140081AC0000938040056F00000B0EC012C216C470
S2140081BC1AC61EC82ACA2ECC32CE36D03AD23ED4D6
S2140081CC42D646D872DA76DC7ADEFEC0732E007B98
S2140081DCF32E107B732F207BF2C2F6C4FAC6732ED6
S2140081EC407BF32E507B732F607BF2C8F6CAFACC1A
S2140081FC8280464ED64E664F73104E7B73905E7BD7
S21400820C73106F7B164EA64E364F73100E7B739004
S21400821C1E7B73102F7B82411242A2423243C24312
S21400822C5245E245724682561257A2573258C258E9
S21400823C525EE25E725F864FF64025617300203018
S21400824C828000000000000000000000000000001B
S20600825C00001B
S20600825E01A078
S20600826001A076
S20600826201A074
S20600826401A072
S20600826601A070
S20600826801A06E
S20600826A01A06C
S20600826C01A06A
S20600826E01A068
S20600827001A066
S20600827201A064
S20600827401A062
S214008276411106C622C463F4D500014429A03684FB
S214008286B2853686A9282285B240224441018280DC
S20600829625A814
S214008298931585010605FD85ED892D8D1375F50F5A
S2060082A88280CD
S2140082AA05C281462E960347050083C70500850545
S2140082BA3D8FD98E0505E398C5FE13F5F60F828025
S2080082CA0145828063
S2140082CE11CA2A96AA86138716002380B600BA8687
S20A0082DEE31BC7FE8280D0
S2140082E409CE2A96AA8603C7050085059387160035
S2100082F42380E600BE86E398C7FE82806A
S20600830001A0D5
S20600830201A0D3
S21400830441112AC632456358A00001450100B24512
S20E0083140505E34DB5FE4101828029
S21400831E0146A1461397F501931785017D87698F50
S21400832E0605FD16FD87ED8B398E3D8D8581FDF29A
S20A00833E1375F60F8280A5
S214008344011122CE26CC4ACA4EC852C656C45AC2B8
S21400835413860501AE86034705002380E6008506DE
S2140083640505E39AC6FE3147B70210009382020061
S21400837437081000130808109308C00AB387E500EE
S21400838483C3070083C6170083CE270003CE3700B7
S21400839411071375C70005E93383D200B386D201EB
S2140083A43386C20133847200135547004295034551
S2140083B4F5FF8344030083C60600834E0600034E7F
S2140083C40400B343950003C547FF83C457FF03C4A3
S2140083D467FF03C677FF33457500A58EB344D40103
S2140083E43346C6012382A700A382D70023839700BF
S2140083F4A383C700E36417F941453703100013034A
S214008404A3109143130800098142AA88338EA5005D
S2140084141399220033052E01834E0500034F1500E1
S214008424834F250083493500014A014B13162A0061
S214008434B30AC30083C60A00A14776841317F4015F
S214008444939486017D87758F8606FD17FD84ED88D7
S214008454334B6701A58E0580F5F3014483C61A00E5
S214008464A147FA841397F401139686017D87758FC6
S2140084748606FD177D866D8A398CB18E8580FDF360
S214008484814483C62A00A1477E871316F7011395F5
S21400849486017D86758E8606FD177D856D89B18C71
S2140084A4A98E0583FDF383C63A00B34A64012146C8
S2140084B44E871314F701139586017D84758C860602
S2140084C47D167D856D89A18FA98E05837DF233C5C2
S2140084D49A0033662A013D8D7296050A2300A6008B
S2140084E4E3157AF48502E39572F213850801E3ED49
S2140084F408F17244E2445249C249324AA24A124B33
S2080085040561828006
S2140085081306050183C6050003470500B98E230038
S210008518D50005058505E317C5FE82802A
S21400852441110348C6008348D6008342E6008346CA
S214008534F60003478600834796000343A60083435A
S214008544B600A208C202E206A20733E80801B3E8AE
S2140085545600B3E2E700034E460083465600034740
S2140085646600834776004203E203A2064207E20758
S21400857433E36300B3E3C601034E060083461600E6
S214008584B3EEE7008347260003463600A206B3E6AA
S214008594C601C2076206D18F33E80801B3685300E8
S2140085A433E77E001386050AD58F8A863EC03AC214
S2140085B446C442C6130801018347060003C70600E3
S2140085C43D8F2380E60085060506E39706FF82486E
S2140085D49386C5091388C50083A746FFB387172F5C
S2140085E4B24223AAF6FEB387576E224323AAF6FEA8
S2140085F4B38767AE924323AAF6FEB38777EE03A744
S21400860486FF23AAF6FE3307772E23ACE6FE33074F
S214008614176F23ACE6FE330757AE23ACE6FE3307EC
S21400862467EE03A6C6FF23ACE6FE3306662E23AE2D
S214008634C6FE3306766E23AEC6FE330616AF23AEEC
S214008644C6FE330656EE9C4223AEC6FEB387572EAE
S2140086549CC2B387676E9CC2B38777AE9CC2B3874F
S21400866417EF83A846FF03A786FF03A6C6FF9CC290
S214008674C1163AC232C43EC6E39006F703A8050004
S2140086843308182B23A005013308F86A23A0050134
S2140086943308C8AA23A005013308E8EAD44123A076
S2140086A40501B386E62AD4C1B386166BD4C1B38655
S2140086B4F6AAD4C1B386C6EA03A88500D4C1330893
S2140086C4C82A23A405013308E86A23A4050133084D
S2140086D418AB23A405013308F8EAD44523A40501FE
S2140086E4B386F62AD4C5B386C66AD4C5B386E6AAC4
S2120086F4D4C5B38616EB4146D4C54101D5B6B3
S2140087020971232E1116232C8116232A911623284B
S214008712211723263117AE84BD8995E53689AA89A5
S2140087226C193285393985C0014468006C19130604
S214008732000B453E33858900330689006C00D5332D
S2140087424104E36494FE8320C11703248117832423
S2120087524117032901178329C1161961828079
S2080087600CC1828041
S21400876413060501944114C111059105E31CC5FEC9
S2060087748280FC
S20A0087768C410CC182805C
S21400877C011106CE22CC26CA4AC837291000370665
S21400878C10001306A611B70610009386A6128A844C
S21400879C0A85C1454144853737656C6CB73520571B
S2140087AC37766C64130585542328A9023735303088
S2140087BC9385F5C61306F62613051502232AB90269
S2140087CC232CC902232EA90202452320A9041245F4
S2140087DC2322A90422452324A9043245B7051000F8
S2140087EC9385A51337B6AABA2326A904B7C6FECA1C
S2140087FC1305D6AA1386E6AB83C6040003C705008A
S21400880C6397E6007D14850585047DF43285232266
S21400881CA90037C5ADDE1305F5EEB725100088C1E7
S21200882C0145F2406244D24442490561828012
S214100000637C777BF26B6FC53001672BFED7AB76C0
S214100010CA82C97DFA5947F0ADD4A2AF9CA472C06B
S214100020B7FD9326363FF7CC34A5E5F171D83115D8
S21410003004C723C31896059A071280E2EB27B275F9
S21410004009832C1A1B6E5AA0523BD6B329E32F8471
S21410005053D100ED20FCB15B6ACBBE394A4C58CF69
S214100060D0EFAAFB434D338545F9027F503C9FA83D
S21410007051A3408F929D38F5BCB6DA2110FFF3D20B
S214100080CD0C13EC5F974417C4A77E3D645D1973BF
S21410009060814FDC222A908846EEB814DE5E0BDBB9
S2141000A0E0323A0A4906245CC2D3AC629195E479F0
S2141000B0E7C8376D8DD54EA96C56F4EA657AAE084A
S2141000C0BA78252E1CA6B4C6E8DD741F4BBD8B8AE5
S2141000D0703EB5664803F60E613557B986C11D9E4B
S2141000E0E1F8981169D98E949B1E87E9CE5528DFC2
S2141000F08CA1890DBFE6426841992D0FB054BB16EE
S21410010001020408102040801B360E0B0D09090E44
S2141001100B0D0D090E0B0B0D090E63657365343050
S214100120343070617373776F72641409A5FB1FF413
S2141001304B71BEAA252E0F08F9AA48656C6C6F2C59
S20E10014020576F726C6421303030C7
S20610014A00009E
S8040080D2A9
