S01300006F75747075742F736F66742E7372656375
S214008000130000001300000013000000130000001F
S214008010130000001300000013000000130000000F
S21400802013000000130000001300000013000000FF
S21400803013000000130000001300000013000000EF
S21400804013000000130000001300000013000000DF
S214008050130000001300000013000000A5A859A09C
S21400806051A84DA045A8F9A075A8EDA0E1A819A0B3
S208008070D5A809A2DF
S21400807481400681868106828682068386830684FC
S2140080848684068586850686868606878687068887
S214008094868806898689068A868A068B868B068C57
S2140080A4868C068D868D068E868E068F868F1701A5
S2140080B410001301E1F46357BD0123200D00110DD8
S2140080C4E3DDADFF0145814505242A842285F52A92
S2140080D41D7186CE7520970000009380200F81AA1C
S2140080E41D7186CE7128970000009380200E89A209
S2140080F41D7186CE7120970000009380200D15AA6E
S2140081041D7186CEB528970000009380200C1DA212
S2140081141D7186CEB520970000009380200B21AAFF
S2140081241D7186CEB128970000009380200A31A2E4
S2140081341D7186CEB1209700000093802009EDA81B
S2140081441D7186CE35289700000093802008C5A8A8
S2140081541D7186CE35209700000093802007F9A86D
S2140081641D7186CE3128970000009380200675A8DE
S2140081741D7186CE312097000000938020057DA0D7
S2140081840EC012C216C41AC61EC82ACA2ECC32CEB6
S21400819436D03AD23ED442D646D872DA76DC7ADE86
S2140081A4FEC0732E007BF32E107B732F207BF2C24F
S2140081B4F6C4FAC6732E407BF32E507B732F607B77
S2140081C4F2C8F6CAFACC8280464ED64E664F731074
S2140081D44E7B73905E7B73106F7B164EA64E364FA7
S2140081E473100E7B73901E7B73102F7B824112429A
S2140081F4A2423243C2435245E24572468256125761
S214008204A2573258C258525EE25E725F864FF640FC
S214008214256173002030828000000000000000000A
S20C00822400000000000000004D
S20600822C01A0AA
S20600822E01A0A8
S20600823001A0A6
S20600823201A0A4
S20600823401A0A2
S20600823601A0A0
S20600823801A09E
S20600823A01A09C
S20600823C01A09A
S20600823E01A098
S20600824001A096
S20600824201A094
S214008244411106C622C463F4D500014429A036842D
S214008254B2853686A9282285B2402244410182800E
S20600826425A846
S214008266931585010605FD85ED892D8D1375F50F8C
S2060082768280FF
S21400827805C281462E960347050083C70500850577
S2140082883D8FD98E0505E398C5FE13F5F60F828057
S2080082980145828095
S21400829C11CA2A96AA86138716002380B600BA86B9
S20A0082ACE31BC7FE828002
S2140082B209CE2A96AA8603C7050085059387160067
S2100082C22380E600BE86E398C7FE82809C
S2060082CE01A008
S2060082D001A006
S2140082D241112AC632456358A00001450100B24545
S20E0082E20505E34DB5FE410182805C
S2140082EC79713718F9AAB7B8252E37F34B71B7162C
S2140082FCA5FBB7727264B763737337353430B765E2
S21400830C736502C002C202C402C61307F880138645
S21400831CE8AB9307F3419386469136D03ED232D4DF
S21400832C3AD61010938672F7138703171305450376
S21400833C938535562EC82ACA3ACC36CE08081B006A
S21400834C06009B0046001B0186009B01C6008A8522
S21400835C1B0205009B0245001B0385009B03C50002
S21400836C372510006B1000003B800500BB804500D5
S21400837C3B818500BB81C500B7656C6C93858554C5
S21400838C0CD9B73520579385F5C64CD9B7756C64A0
S21400839C9385F5260CDDB7353030938515024CDD0C
S2140083AC82452CC192456CC1A2452CC5B2456CC504
S2140083BCB7C5FECA9385E5AB4CC1B7C5ADDE938594
S20E0083CCF5EE0CC101454561828004
S2141000001409A5FB1FF44B71BEAA252E0F08F9AADA
S214100010636573653430343070617373776F7264F0
S80400807407
