S01300006F75747075742F736F66742E7372656375
S214008000130000001300000013000000130000001F
S214008010130000001300000013000000130000000F
S21400802013000000130000001300000013000000FF
S21400803013000000130000001300000013000000EF
S21400804013000000130000001300000013000000DF
S2140080501300000013000000130000006F0040092A
S2140080606F00200A6F00000B6F00E00B6F00C00C63
S2140080706F00C00E6F00600D6F0080106F00200F45
S2100080806F00C0006F00E0106F00C01121
S21400808C81400681868106828682068386830684E4
S21400809C868406858685068686860687868706886F
S2140080AC868806898689068A868A068B868B068C3F
S2140080BC868C068D868D068E868E068F868F17018D
S2140080CC1000130161F36357BD0123200D00110D41
S2140080DCE3DDADFF01458145EF0070582A8422850B
S2140080ECEF0040211D7186CEC920970000009380BA
S2140080FC80106F0060161D7186CE45289700000014
S21400810C9380600F6F0060151D7186CE79289700DE
S21400811C00009380400E6F0060141D7186CE712097
S21400812C970000009380200D6F0060131D7186CEA3
S21400813CAD28970000009380000C6F0060121D7134
S21400814C86CEA520970000009380E00A6F00801171
S21400815C1D7186CE9928970000009380C0096F0089
S21400816C40101D7186CE9120970000009380A008C9
S21400817C6F00800F1D7186CE0D289700000093802F
S21400818C80076F00400E1D7186CE052097000000FC
S21400819C938060066F00000C1D7186CE3920970008
S2140081AC0000938040056F00000B0EC012C216C470
S2140081BC1AC61EC82ACA2ECC32CE36D03AD23ED4D6
S2140081CC42D646D872DA76DC7ADEFEC0732E007B98
S2140081DCF32E107B732F207BF2C2F6C4FAC6732ED6
S2140081EC407BF32E507B732F607BF2C8F6CAFACC1A
S2140081FC8280464ED64E664F73104E7B73905E7BD7
S21400820C73106F7B164EA64E364F73100E7B739004
S21400821C1E7B73102F7B82411242A2423243C24312
S21400822C5245E245724682561257A2573258C258E9
S21400823C525EE25E725F864FF64025617300203018
S21400824C828000000000000000000000000000001B
S20600825C00001B
S20600825E01A078
S20600826001A076
S20600826201A074
S20600826401A072
S20600826601A070
S20600826801A06E
S20600826A01A06C
S20600826C01A06A
S20600826E01A068
S20600827001A066
S20600827201A064
S20600827401A062
S214008276411106C622C463F4D500014429A03684FB
S214008286B2853686A9282285B240224441018280DC
S20600829625A814
S214008298931585010605FD85ED892D8D1375F50F5A
S2060082A88280CD
S2140082AA05C281462E960347050083C70500850545
S2140082BA3D8FD98E0505E398C5FE13F5F60F828025
S2080082CA0145828063
S2140082CE11CA2A96AA86138716002380B600BA8687
S20A0082DEE31BC7FE8280D0
S2140082E409CE2A96AA8603C7050085059387160035
S2100082F42380E600BE86E398C7FE82806A
S20600830001A0D5
S20600830201A0D3
S21400830441112AC632456358A00001450100B24512
S20E0083140505E34DB5FE4101828029
S21400831E0146A1461397F501931785017D87698F50
S21400832E0605FD16FD87ED8B398E3D8D8581FDF29A
S20A00833E1375F60F8280A5
S214008344411122C613860501AE8603470500238025
S214008354E60085060505E39AC6FE3147B702100017
S2140083649382020037081000130808109308C00A06
S214008374B387E50003C3070003CF170083CE2700A7
S21400838483C3370011079376C70095E63386E20168
S2140083943385D2019693169393564700C29603CE1E
S2140083A4F6FF83460600034F050083CE030083438F
S2140083B403003343DE0003CE47FF83CF57FF03C4D7
S2140083C467FF83C677FF33456E0033C6EF01334439
S2140083D4D401B3C676002382A700A382C7002383F2
S2140083E48700A383D700E36517F9324441018280EE
S2140083F4930505013706100013060600834605009C
S214008404B29683C606002300D5000505E318B5FE1C
S20600841482805F
S21400841693050501370610001306A61083460500C9
S214008426B29683C606002300D5000505E318B5FEFA
S20600843682803D
S214008438034855008348650003437500834E95003E
S2140084488347A5008342B500034ED5008345E50063
S2140084588346F50083431500034625000347350089
S214008468A30005012301F500A301D500A302D50149
S2140084782303B500A303E500A304C5012305C5002F
S214008488A3056500A306750023071501A307550075
S2060084988280DB
S21400849A8348B5000346D5008343150003432500E9
S2140084AA03483500834E55008342650083457500B0
S2140084BA034E95008346A5000347E5008347F5006B
S2140084CAA300C5002301D500A301B500A3027500C9
S2140084DA2303E500A3031501A304D50123056500BC
S2140084EAA305F500A306C50123075500A307050142
S2060084FA828079
S2140084FC797106D622D426D24AD04ECE014F930896
S21400850CC10011488146931F2F00B305F50103C91E
S21400851C050009472146CA859397F50193148701F0
S21400852CFD87F98F0607E2057D16FD84ED88BD8E66
S21400853C258FE58175F20147938E1F00B305D50193
S21400854C83C305008D4521469E879394F7011394AB
S21400855C8501FD84ED8C8605E2077D167D846D888D
S21400856C258FA18DE58375F2B98E13832F00938228
S21400857C3F00B30565003307550003CE050083495D
S21400858C0700C69F0947B3C5C601B3C5350123808E
S21400859CBF00A1459E879396F70113148701FD86AD
S2140085ACF98E0607E207FD157D846D88358E218FC2
S2140085BCE583F5F18D47214772849316F401939465
S2140085CC8701FD86FD8E860762047D17FD84ED8887
S2140085DCB58DA58F658075F3B3C62901358EC69EFD
S2140085ECB18D09462380BE00A145F2879396F7010C
S2140085FC93148601FD86F18E0606E207FD15FD84B2
S21400860CED88358F258EE583F5F10146B3CE230133
S21400861C8D47A145CE869394F60113948701FD846D
S21400862CFD8C8607E206FD157D846D88258EA18F50
S21400863CE582F5F1B3C6EE004693358E0D47230062
S21400864CC30021469316F90193178701FD86F98E10
S21400865C060762097D16FD87ED8BB58D3D8F135988
S21400866C99016DF2894721479396F90193948701F6
S21400867CFD86FD8E8607E2097D17FD84ED88358E16
S21400868CA58F93D999016DF3B3467E00C692B58D2E
S21400869CB18D050F2380B200E3160FE76C00414640
S2140086AC2539B250225492540259F24945618280BF
S2140086BC797106D622D426D24AD04ECE52CC56CA81
S2140086CC014E9308410011480149931E2E003306B3
S2140086DCD501034F060039472146FA869397F601D3
S2140086EC93148701FD87F98F06077D16FD84ED88A8
S2140086FC33C92701258F858275F2014793831E00A7
S21400870C33067500834F0600AD472146FE869394CC
S21400871CF60113948701FD84FD8C86077D167D84F7
S21400872C6D88258FA18F85827DF2814713832E005D
S21400873C33066500834906003544A1464E869314DD
S21400874CF60193158401FD84E18C0604FD16FD8567
S21400875CED89A58F2D8C0582FDF2014493823E0097
S21400876CB305550003CA0500334927012547A14523
S21400877C52869314F60193168701FD84F98C06072E
S21400878CFD15FD86ED8A258C358F0582FDF1814A17
S21400879C3346F900C69E218EA5472380CE0021477E
S2140087AC7A869316F60193948701FD86FD8E8607CE
S2140087BC7D17FD84ED88B3CA5601A58F058275F327
S2140087CC8147394421477E869316F601931484011B
S2140087DCFD86E18E06047D17FD84ED88B58F258C0D
S2140087EC05827DF3AD4421444E869316F60193958F
S2140087FC8401FD86E58E86047D14FD85ED89358F16
S21400880CAD8C05827DF0B3CE5701B544A14552869A
S21400881C9316F60193978401FD86E58E8604FD1566
S21400882CFD87ED8B358CBD8C0582FDF1014933C679
S21400883CEE00C693218EB5472380C30021477A8667
S21400884C9316F60193948701FD86FD8E86077D1799
S21400885CFD84ED8833C92601A58F058275F3814703
S21400886CA54421477E869316F60113948401FD8653
S21400887CE58E86047D177D846D88B58FA18C058268
S21400888C7DF3B94421444E869316F60193958401E4
S21400889CFD86E58E86047D14FD85ED89358FAD8CC1
S2140088AC05827DF0B3C32701AD44A14552869316CD
S2140088BCF60193978401FD86E58E8604FD15FD87EB
S2140088CCED8B358CBD8C0582FDF133C6E3004693EB
S2140088DC318C2D462300830021479316FF019317F6
S2140088EC8601FD86F18E06067D17FD87ED8BB58D10
S2140088FC3D8E135F1F0075F33546A1479396FF0117
S21400890C93148601FD86F18E0606FD17FD84ED8810
S21400891C358F258E93DF1F00F5F32546214493965D
S21400892CF90193148601FD86F18E06067D14FD84EE
S21400893CED88B58F258E93D9190075F00146B98D43
S21400894CB94421479316FA0113948401FD86E58EEB
S21400895C86047D177D846D88358EA18C135A1A007B
S21400896C75F3BD8DC692B18D050E2380B200E31D46
S21400897C0ED54C0041468D32B250225492540259B8
S20E00898CF249624AD24A4561828031
S2140089961306050183C6050003470500B98E2300A6
S2100089A6D50005058505E317C5FE828098
S2140089B2397106DE22DC26DA4AD84ED652D456D290
S2140089C25AD05ECE3289AE890348C5000346D5002A
S2140089D28346E5000347F5008347850083449500F8
S2140089E20344A5008345B5002206C2066207A20418
S2140089F233680601B368D700C58F03474500834432
S214008A02550003466500834675004204E205A2044B
S214008A124206E206C18D458F8344050003441500D5
S214008A22558E83462500034535002204458CC20632
S214008A326205558DB3E60801DD8D598E498C6800B6
S214008A4222C632C82ECA36CC6008CE8503C60500BA
S214008A5283460500358E2300C50005058505E31708
S214008A6285FE138A0901854AB70B1000938B0B000B
S214008A72294B680083450500DE9583C50500230063
S214008A82B5000505E31885FE034811018348210158
S214008A928342310183465101034761010343710159
S214008AA2834491010345A1018345B1018343D1006B
S214008AB28347E1000346F100A30601012307E10014
S214008AC2A307B100A308D1002309A100A309C1008E
S214008AD2A30A9100230BF100A30B5100A30C710013
S214008AE2230D1101A30D610068006400393452851C
S214008AF28345050003C60400B18D2380B4008504B7
S214008B020505E39784FE850A410AE3946AF768003E
S214008B1283450500DE9583C505002300B5000505DF
S214008B22E31885FE8348110103482101834231017F
S214008B328346510103476101034371018344910156
S214008B428345A1010345B1018343D1008347E10078
S214008B520346F100A30611012307E100A307A100C3
S214008B62A308D1002309B100A309C100A30A9100FA
S214008B72230BF1001385090AA30B5100A30C710005
S214008B82230D0101A30D61006C000346050083C698
S214008B920500358E2380C50085050505E39785FE0D
S214008BA26C0041464A85EFF0CFF3F2506254D2543D
S214008BB24259B259225A925A025BF24B2161828082
S214008BC2557186C7A2C5A6C3CAC14EDFAE84BD898B
S214008BD295E13689AA896C003285EFF08FF699C83E
S214008BE2014433858900330689006C00D133410481
S214008BF2E36994FEBE402E449E440E49FA596961CA
S206008C02828069
S214008C04797106D622D426D24AD04ECE52CC56CA33
S214008C145AC83289AE890348C5000346D500834640
S214008C24E5000347F5008347850083449500034425
S214008C34A5008345B5002206C2066207A20433686F
S214008C440601B368D700C58F034745008344550023
S214008C5403466500834675004204E205A204420604
S214008C64E206C18D458F8344050003441500558EE6
S214008C7483462500034535002204458CC20662055A
S214008C84C98EB3E40801CD8F598E1385090AC18EA7
S214008C948A8536C032C23EC426C60008034605008E
S214008CA483C60500358E2380C50085050505E39734
S214008CB485FE138A09092545B70410009384A41079
S214008CC4854A2A8B0A8583450500A69583C5050033
S214008CD42300B5000505E31885FE8348B1008345E7
S214008CE4D1008343110083422100034831008347A7
S214008CF451000343610003457100034E910003478E
S214008D04A1000346E1008346F100A300B10023015D
S214008D14E100A301A100A30271002303C100A30381
S214008D241101A304F10023055100A305D100A306F5
S214008D34C10123076100A30701010A85D28503C682
S214008D44050083460500358E2300C5000505850508
S214008D54E31785FE0A858D321305FBFF411AE3E20D
S214008D646AF70A8583450500A69583C50500230092
S214008D74B5000505E31885FE8348B1008345D10098
S214008D840346110083422100034831008347510003
S214008D940343610003477100834391008346A100A7
S214008DA48344E1000345F100A300B1002301D10090
S214008DB4A301E100A302C10023039100A303110150
S214008DC4A304F10023055100A305A100A306710026
S214008DD423076100A30701010A8583C5090003462A
S214008DE40500B18D2300B50005058509E31785FE4A
S214008DF48A8541464A85EFF0AFCEB250225492544B
S212008E040259F249624AD24A424B45618280C8
S214008E12557186C7A2C5A6C3CAC14EDFAE84BD8938
S214008E2295E13689AA896C003285EFF08FD199C810
S214008E32014433858900330689006C00D933410426
S214008E42E36994FEBE402E449E440E49FA59696177
S206008E52828017
S208008E540CC1828046
S214008E5813060501944114C111059105E31CC5FECE
S206008E68828001
S214008E6A011106CE22CC26CA4AC837291000370571
S214008E7A10001305A521370610001306A620C144C4
S214008E8AC1458A860A84493737656C6CB7352057D8
S214008E9A37766C64130585542328A9023735303093
S214008EAA9385F5C61306F62613051502232AB90274
S214008EBA232CC902232EA90202452320A9041245FF
S214008ECA2322A90422452324A9043245B705100003
S214008EDA9385A52237B6AABA2326A904B7C6FECA18
S214008EEA1305D6AA1386E6AB8346040003C7050015
S214008EFA6397E600FD1485050504FDF432852322F2
S214008F0AA90037C5ADDE1305F5EEB725100088C1F2
S212008F1A0145F2406244D2444249056182801D
S214100000637C777BF26B6FC53001672BFED7AB76C0
S214100010CA82C97DFA5947F0ADD4A2AF9CA472C06B
S214100020B7FD9326363FF7CC34A5E5F171D83115D8
S21410003004C723C31896059A071280E2EB27B275F9
S21410004009832C1A1B6E5AA0523BD6B329E32F8471
S21410005053D100ED20FCB15B6ACBBE394A4C58CF69
S214100060D0EFAAFB434D338545F9027F503C9FA83D
S21410007051A3408F929D38F5BCB6DA2110FFF3D20B
S214100080CD0C13EC5F974417C4A77E3D645D1973BF
S21410009060814FDC222A908846EEB814DE5E0BDBB9
S2141000A0E0323A0A4906245CC2D3AC629195E479F0
S2141000B0E7C8376D8DD54EA96C56F4EA657AAE084A
S2141000C0BA78252E1CA6B4C6E8DD741F4BBD8B8AE5
S2141000D0703EB5664803F60E613557B986C11D9E4B
S2141000E0E1F8981169D98E949B1E87E9CE5528DFC2
S2141000F08CA1890DBFE6426841992D0FB054BB16EE
S21410010001020408102040801B3652096AD530368A
S214100110A538BF40A39E81F3D7FB7CE339829B2F83
S214100120FF87348E4344C4DEE9CB547B9432A6C298
S214100130233DEE4C950B42FAC34E082EA16628D9E5
S21410014024B2765BA2496D8BD12572F8F664866868
S2141001509816D4A45CCC5D65B6926C704850FDEDD4
S214100160B9DA5E154657A78D9D8490D8AB008CBC27
S214100170D30AF7E45805B8B34506D02C1E8FCA3FED
S2141001800F02C1AFBD0301138A6B3A9111414F673D
S214100190DCEA97F2CFCEF0B4E67396AC7422E7ADF5
S2141001A03585E2F937E81C75DF6E47F11A711D299F
S2141001B0C5896FB7620EAA18BE1BFC563E4BC6D238
S2141001C079209ADBC0FE78CD5AF41FDDA833880755
S2141001D0C731B11210592780EC5F60517FA919B54D
S2141001E04A0D2DE57A9F93C99CEFA0E03B4DAE2AB1
S2141001F0F5B0C8EBBB3C83539961172B047EBA77D6
S214100200D626E169146355210C7D63657365343019
S214100210343070617373776F72641409A5FB1FF422
S2141002204B71BEAA252E0F08F9AA48656C6C6F2C68
S20E10023020576F726C6421303030D6
S20610023A0000AD
S8040080D2A9
